:100000000C9462000C948A000C948A000C948A0070
:100010000C948A000C948A000C948A000C948A0038
:100020000C948A000C948A000C948A000C948A0028
:100030000C948A000C948A000C948A000C948A0018
:100040000C943D020C948A000C94AD020C9487022F
:100050000C948A000C948A000C948A000C948A00F8
:100060000C948A000C948A000000000023002600F3
:10007000290000000008000201000003040700003E
:1000800000000000000000000000250028002B00F8
:1000900000000000240027002A00040404040404D3
:1000A0000404020202020202030303030303010227
:1000B00004081020408001020408102001020408F6
:1000C0001020000411241FBECFEFD8E0DEBFCDBF4B
:1000D00011E0A0E0B1E0EEEAF8E002C005900D9278
:1000E000A032B107D9F721E0A0E2B1E001C01D9232
:1000F000A63CB207E1F710E0C2E6D0E004C02197C9
:10010000FE010E944F04C136D107C9F70E94DF02E9
:100110000C9455040C940000CF93DF9390E0FC0105
:10012000E255FF4F249186569F4FFC01849188230E
:10013000C1F090E0880F991FFC01E057FF4FC59177
:10014000D491FC01EA57FF4FA591B4919FB7F89461
:100150008881E22FE0958E2388838C91E823EC93AD
:100160009FBFDF91CF91089590E0FC01EE58FF4FC3
:100170002491FC01E255FF4F3491FC01E656FF4FFC
:10018000E491EE23C1F1222339F02330E9F090F419
:10019000213001F1223011F1F0E0EE0FFF1FE8599C
:1001A000FF4FA591B491EC91E32381E090E029F514
:1001B00080E008952730A9F02830C9F0243061F795
:1001C000809180008F7D03C0809180008F77809325
:1001D0008000E2CF84B58F7784BDDECF84B58F7D7C
:1001E000FBCF8091B0008F778093B000D5CF809106
:1001F000B0008F7DF9CF80E090E008953FB7F8948C
:100200008091250190912601A0912701B0912801AC
:1002100026B5A89B05C02F3F19F00196A11DB11D61
:100220003FBFBA2FA92F982F8827BC01CD01620F9D
:10023000711D811D911D42E0660F771F881F991F58
:100240004A95D1F70895AF92BF92CF92DF92EF9285
:10025000FF920F931F93CF93DF936C017B018B0170
:10026000040F151FEB015E01AE18BF08C017D107C0
:1002700059F06991D601ED91FC910190F081E02D4A
:10028000C6010995892B79F7C501DF91CF911F919F
:100290000F91FF90EF90DF90CF90BF90AF900895B7
:1002A000FC01538D448D252F30E0842F90E0821B7C
:1002B000930B541710F0CF96089501970895FC0101
:1002C000918D828D981761F0A28DAE0FBF2FB11D59
:1002D0005D968C91928D9F5F9F73928F90E00895B1
:1002E0008FEF9FEF0895FC01918D828D981731F06B
:1002F000828DE80FF11D858D90E008958FEF9FEFBF
:100300000895FC01918D228D892F90E0805C9F4F94
:10031000821B91098F739927089589E291E00E94C9
:10032000810121E0892B09F420E0822F089580E0EB
:1003300090E0892B29F00E948D0181110C9400001E
:100340000895FC01A48DA80FB92FB11DA35ABF4F6A
:100350002C91848D90E001968F739927848FA689C4
:10036000B7892C93A089B1898C91837080648C9318
:10037000938D848D981306C00288F389E02D8081C7
:100380008F7D80830895EF92FF920F931F93CF93F9
:10039000DF93EC0181E0888F9B8D8C8D98131AC0C0
:1003A000E889F989808185FF15C09FB7F894EE89A7
:1003B000FF896083E889F989808183708064808304
:1003C0009FBF81E090E0DF91CF911F910F91FF904F
:1003D000EF900895F62E0B8D10E00F5F1F4F0F73F7
:1003E0001127E02E8C8D8E110CC00FB607FCFACFB2
:1003F000E889F989808185FFF5CFCE010E94A101AE
:10040000F1CFEB8DEC0FFD2FF11DE35AFF4FF08282
:100410009FB7F8940B8FEA89FB8980818062CFCFE8
:10042000CF93DF93EC01888D8823B9F0AA89BB892B
:10043000E889F9898C9185FD03C0808186FD0DC016
:100440000FB607FCF7CF8C9185FFF2CF808185FF37
:10045000EDCFCE010E94A101E9CFDF91CF910895A8
:10046000FC0101900020E9F73197AF01481B590BBF
:10047000BC0189E291E00C9423011F920F920FB608
:100480000F9211242F933F938F939F93AF93BF931A
:100490008091210190912201A0912301B09124012A
:1004A0003091200123E0230F2D3758F50196A11D2F
:1004B000B11D209320018093210190932201A093EC
:1004C0002301B09324018091250190912601A091F0
:1004D0002701B09128010196A11DB11D809325012E
:1004E00090932601A0932701B0932801BF91AF916B
:1004F0009F918F913F912F910F900FBE0F901F9062
:10050000189526E8230F0296A11DB11DD2CF1F9288
:100510000F920FB60F9211242F933F934F935F9337
:100520006F937F938F939F93AF93BF93EF93FF93BB
:1005300089E291E00E94A101FF91EF91BF91AF91FB
:100540009F918F917F916F915F914F913F912F91EB
:100550000F900FBE0F901F9018951F920F920FB61D
:100560000F9211242F938F939F93EF93FF93E0911A
:100570003901F0913A018081E0913F01F091400111
:1005800082FD1BC09081809142018F5F8F7320910B
:100590004301821741F0E0914201F0E0E75DFE4F38
:1005A000958F80934201FF91EF919F918F912F91B1
:1005B0000F900FBE0F901F9018958081F4CFCF93AE
:1005C000DF93CDB7DEB7A1970FB6F894DEBF0FBEAD
:1005D000CDBF789484B5826084BD84B5816084BDCC
:1005E00085B5826085BD85B5816085BD80916E00D1
:1005F000816080936E001092810080918100826002
:10060000809381008091810081608093810080913E
:1006100080008160809380008091B100846080932D
:10062000B1008091B00081608093B00080917A0029
:10063000846080937A0080917A00826080937A004F
:1006400080917A00816080937A0080917A0080683E
:1006500080937A001092C100E0913901F0913A0143
:1006600082E08083E0913501F09136011082E091C3
:100670003701F09138018FEC808310924101E091B5
:100680003D01F0913E0186E08083E0913B01F091D5
:100690003C01808180618083E0913B01F0913C01CD
:1006A000808188608083E0913B01F0913C018081F2
:1006B00080688083E0913B01F0913C0180818F7DD7
:1006C00080838AE00E948C008BE00E948C0090E482
:1006D000392E2AE0822E912CA12CB12C00E010E0C2
:1006E0008AE00E94B4000197B1F582E191E00E9496
:1006F00030028DE191E00E9430020E94FE002B0149
:100700003C0185E0C82ED12CE12CF12C0E94FE008A
:100710006419750986099709683E7340810591053A
:10072000A8F3F1E0CF1AD108E108F10828EE420E53
:1007300023E0521E611C711CC114D104E104F104B8
:1007400029F70115110561F20E948D01882341F2FC
:100750000E940000C5CF8BE00E94B400019729F2EF
:1007600030927C0080917A00806480937A0080913E
:100770007A0086FDFCCFC0907800D09079000D2CD7
:10078000000CEE08FF08F7FE25C06DE289E291E05B
:100790000E94C30122273327A9012C193D094E09C4
:1007A0005F0919A2CE0181967C01CA01B901A50198
:1007B00094010E942D04605DF70162937F01211571
:1007C00031054105510589F7E114F10409F491CF90
:1007D000C7018DCFA701960119A2CE0181967C0198
:1007E000CA01B901A50194010E942D04605DF701C1
:1007F00062937F01211531054105510589F7E4CF49
:10080000E9E2F1E01382128288EE93E0A0E0B0E02A
:1008100084839583A683B78384E091E0918380836A
:1008200085EC90E09587848784EC90E097878687B5
:1008300080EC90E0918B808B81EC90E0938B828BAD
:1008400082EC90E0958B848B86EC90E0978B868B86
:10085000118E128E138E148E0895A1E21A2EAA1BE9
:10086000BB1BFD010DC0AA1FBB1FEE1FFF1FA21760
:10087000B307E407F50720F0A21BB30BE40BF50B5D
:10088000661F771F881F991F1A9469F760957095E6
:10089000809590959B01AC01BD01CF010895EE0FAD
:0E08A000FF1F0590F491E02D0994F894FFCF0E
:1008AE0000000000C30123015001100281015F010D
:1008BE0073014C65616473204F666621000D0A005A
:00000001FF
